{
  "contractName": "MyGovernor",
  "abi": [
    {
      "inputs": [
        {
          "internalType": "contract IVotes",
          "name": "_token",
          "type": "address"
        },
        {
          "internalType": "contract TimelockController",
          "name": "_timelock",
          "type": "address"
        }
      ],
      "stateMutability": "nonpayable",
      "type": "constructor"
    },
    {
      "anonymous": false,
      "inputs": [
        {
          "indexed": false,
          "internalType": "uint256",
          "name": "proposalId",
          "type": "uint256"
        }
      ],
      "name": "ProposalCanceled",
      "type": "event"
    },
    {
      "anonymous": false,
      "inputs": [
        {
          "indexed": false,
          "internalType": "uint256",
          "name": "proposalId",
          "type": "uint256"
        },
        {
          "indexed": false,
          "internalType": "address",
          "name": "proposer",
          "type": "address"
        },
        {
          "indexed": false,
          "internalType": "address[]",
          "name": "targets",
          "type": "address[]"
        },
        {
          "indexed": false,
          "internalType": "uint256[]",
          "name": "values",
          "type": "uint256[]"
        },
        {
          "indexed": false,
          "internalType": "string[]",
          "name": "signatures",
          "type": "string[]"
        },
        {
          "indexed": false,
          "internalType": "bytes[]",
          "name": "calldatas",
          "type": "bytes[]"
        },
        {
          "indexed": false,
          "internalType": "uint256",
          "name": "startBlock",
          "type": "uint256"
        },
        {
          "indexed": false,
          "internalType": "uint256",
          "name": "endBlock",
          "type": "uint256"
        },
        {
          "indexed": false,
          "internalType": "string",
          "name": "description",
          "type": "string"
        }
      ],
      "name": "ProposalCreated",
      "type": "event"
    },
    {
      "anonymous": false,
      "inputs": [
        {
          "indexed": false,
          "internalType": "uint256",
          "name": "proposalId",
          "type": "uint256"
        }
      ],
      "name": "ProposalExecuted",
      "type": "event"
    },
    {
      "anonymous": false,
      "inputs": [
        {
          "indexed": false,
          "internalType": "uint256",
          "name": "proposalId",
          "type": "uint256"
        },
        {
          "indexed": false,
          "internalType": "uint256",
          "name": "eta",
          "type": "uint256"
        }
      ],
      "name": "ProposalQueued",
      "type": "event"
    },
    {
      "anonymous": false,
      "inputs": [
        {
          "indexed": false,
          "internalType": "uint256",
          "name": "oldProposalThreshold",
          "type": "uint256"
        },
        {
          "indexed": false,
          "internalType": "uint256",
          "name": "newProposalThreshold",
          "type": "uint256"
        }
      ],
      "name": "ProposalThresholdSet",
      "type": "event"
    },
    {
      "anonymous": false,
      "inputs": [
        {
          "indexed": false,
          "internalType": "uint256",
          "name": "oldQuorumNumerator",
          "type": "uint256"
        },
        {
          "indexed": false,
          "internalType": "uint256",
          "name": "newQuorumNumerator",
          "type": "uint256"
        }
      ],
      "name": "QuorumNumeratorUpdated",
      "type": "event"
    },
    {
      "anonymous": false,
      "inputs": [
        {
          "indexed": false,
          "internalType": "address",
          "name": "oldTimelock",
          "type": "address"
        },
        {
          "indexed": false,
          "internalType": "address",
          "name": "newTimelock",
          "type": "address"
        }
      ],
      "name": "TimelockChange",
      "type": "event"
    },
    {
      "anonymous": false,
      "inputs": [
        {
          "indexed": true,
          "internalType": "address",
          "name": "voter",
          "type": "address"
        },
        {
          "indexed": false,
          "internalType": "uint256",
          "name": "proposalId",
          "type": "uint256"
        },
        {
          "indexed": false,
          "internalType": "uint8",
          "name": "support",
          "type": "uint8"
        },
        {
          "indexed": false,
          "internalType": "uint256",
          "name": "weight",
          "type": "uint256"
        },
        {
          "indexed": false,
          "internalType": "string",
          "name": "reason",
          "type": "string"
        }
      ],
      "name": "VoteCast",
      "type": "event"
    },
    {
      "anonymous": false,
      "inputs": [
        {
          "indexed": false,
          "internalType": "uint256",
          "name": "oldVotingDelay",
          "type": "uint256"
        },
        {
          "indexed": false,
          "internalType": "uint256",
          "name": "newVotingDelay",
          "type": "uint256"
        }
      ],
      "name": "VotingDelaySet",
      "type": "event"
    },
    {
      "anonymous": false,
      "inputs": [
        {
          "indexed": false,
          "internalType": "uint256",
          "name": "oldVotingPeriod",
          "type": "uint256"
        },
        {
          "indexed": false,
          "internalType": "uint256",
          "name": "newVotingPeriod",
          "type": "uint256"
        }
      ],
      "name": "VotingPeriodSet",
      "type": "event"
    },
    {
      "inputs": [],
      "name": "BALLOT_TYPEHASH",
      "outputs": [
        {
          "internalType": "bytes32",
          "name": "",
          "type": "bytes32"
        }
      ],
      "stateMutability": "view",
      "type": "function"
    },
    {
      "inputs": [],
      "name": "COUNTING_MODE",
      "outputs": [
        {
          "internalType": "string",
          "name": "",
          "type": "string"
        }
      ],
      "stateMutability": "pure",
      "type": "function"
    },
    {
      "inputs": [
        {
          "internalType": "uint256",
          "name": "proposalId",
          "type": "uint256"
        },
        {
          "internalType": "uint8",
          "name": "support",
          "type": "uint8"
        }
      ],
      "name": "castVote",
      "outputs": [
        {
          "internalType": "uint256",
          "name": "",
          "type": "uint256"
        }
      ],
      "stateMutability": "nonpayable",
      "type": "function"
    },
    {
      "inputs": [
        {
          "internalType": "uint256",
          "name": "proposalId",
          "type": "uint256"
        },
        {
          "internalType": "uint8",
          "name": "support",
          "type": "uint8"
        },
        {
          "internalType": "uint8",
          "name": "v",
          "type": "uint8"
        },
        {
          "internalType": "bytes32",
          "name": "r",
          "type": "bytes32"
        },
        {
          "internalType": "bytes32",
          "name": "s",
          "type": "bytes32"
        }
      ],
      "name": "castVoteBySig",
      "outputs": [
        {
          "internalType": "uint256",
          "name": "",
          "type": "uint256"
        }
      ],
      "stateMutability": "nonpayable",
      "type": "function"
    },
    {
      "inputs": [
        {
          "internalType": "uint256",
          "name": "proposalId",
          "type": "uint256"
        },
        {
          "internalType": "uint8",
          "name": "support",
          "type": "uint8"
        },
        {
          "internalType": "string",
          "name": "reason",
          "type": "string"
        }
      ],
      "name": "castVoteWithReason",
      "outputs": [
        {
          "internalType": "uint256",
          "name": "",
          "type": "uint256"
        }
      ],
      "stateMutability": "nonpayable",
      "type": "function"
    },
    {
      "inputs": [
        {
          "internalType": "address[]",
          "name": "targets",
          "type": "address[]"
        },
        {
          "internalType": "uint256[]",
          "name": "values",
          "type": "uint256[]"
        },
        {
          "internalType": "bytes[]",
          "name": "calldatas",
          "type": "bytes[]"
        },
        {
          "internalType": "bytes32",
          "name": "descriptionHash",
          "type": "bytes32"
        }
      ],
      "name": "execute",
      "outputs": [
        {
          "internalType": "uint256",
          "name": "",
          "type": "uint256"
        }
      ],
      "stateMutability": "payable",
      "type": "function"
    },
    {
      "inputs": [
        {
          "internalType": "address",
          "name": "account",
          "type": "address"
        },
        {
          "internalType": "uint256",
          "name": "blockNumber",
          "type": "uint256"
        }
      ],
      "name": "getVotes",
      "outputs": [
        {
          "internalType": "uint256",
          "name": "",
          "type": "uint256"
        }
      ],
      "stateMutability": "view",
      "type": "function"
    },
    {
      "inputs": [
        {
          "internalType": "uint256",
          "name": "proposalId",
          "type": "uint256"
        },
        {
          "internalType": "address",
          "name": "account",
          "type": "address"
        }
      ],
      "name": "hasVoted",
      "outputs": [
        {
          "internalType": "bool",
          "name": "",
          "type": "bool"
        }
      ],
      "stateMutability": "view",
      "type": "function"
    },
    {
      "inputs": [
        {
          "internalType": "address[]",
          "name": "targets",
          "type": "address[]"
        },
        {
          "internalType": "uint256[]",
          "name": "values",
          "type": "uint256[]"
        },
        {
          "internalType": "bytes[]",
          "name": "calldatas",
          "type": "bytes[]"
        },
        {
          "internalType": "bytes32",
          "name": "descriptionHash",
          "type": "bytes32"
        }
      ],
      "name": "hashProposal",
      "outputs": [
        {
          "internalType": "uint256",
          "name": "",
          "type": "uint256"
        }
      ],
      "stateMutability": "pure",
      "type": "function"
    },
    {
      "inputs": [],
      "name": "name",
      "outputs": [
        {
          "internalType": "string",
          "name": "",
          "type": "string"
        }
      ],
      "stateMutability": "view",
      "type": "function"
    },
    {
      "inputs": [
        {
          "internalType": "uint256",
          "name": "proposalId",
          "type": "uint256"
        }
      ],
      "name": "proposalDeadline",
      "outputs": [
        {
          "internalType": "uint256",
          "name": "",
          "type": "uint256"
        }
      ],
      "stateMutability": "view",
      "type": "function"
    },
    {
      "inputs": [
        {
          "internalType": "uint256",
          "name": "proposalId",
          "type": "uint256"
        }
      ],
      "name": "proposalEta",
      "outputs": [
        {
          "internalType": "uint256",
          "name": "",
          "type": "uint256"
        }
      ],
      "stateMutability": "view",
      "type": "function"
    },
    {
      "inputs": [
        {
          "internalType": "uint256",
          "name": "proposalId",
          "type": "uint256"
        }
      ],
      "name": "proposalSnapshot",
      "outputs": [
        {
          "internalType": "uint256",
          "name": "",
          "type": "uint256"
        }
      ],
      "stateMutability": "view",
      "type": "function"
    },
    {
      "inputs": [
        {
          "internalType": "uint256",
          "name": "proposalId",
          "type": "uint256"
        }
      ],
      "name": "proposalVotes",
      "outputs": [
        {
          "internalType": "uint256",
          "name": "againstVotes",
          "type": "uint256"
        },
        {
          "internalType": "uint256",
          "name": "forVotes",
          "type": "uint256"
        },
        {
          "internalType": "uint256",
          "name": "abstainVotes",
          "type": "uint256"
        }
      ],
      "stateMutability": "view",
      "type": "function"
    },
    {
      "inputs": [
        {
          "internalType": "address[]",
          "name": "targets",
          "type": "address[]"
        },
        {
          "internalType": "uint256[]",
          "name": "values",
          "type": "uint256[]"
        },
        {
          "internalType": "bytes[]",
          "name": "calldatas",
          "type": "bytes[]"
        },
        {
          "internalType": "bytes32",
          "name": "descriptionHash",
          "type": "bytes32"
        }
      ],
      "name": "queue",
      "outputs": [
        {
          "internalType": "uint256",
          "name": "",
          "type": "uint256"
        }
      ],
      "stateMutability": "nonpayable",
      "type": "function"
    },
    {
      "inputs": [],
      "name": "quorumDenominator",
      "outputs": [
        {
          "internalType": "uint256",
          "name": "",
          "type": "uint256"
        }
      ],
      "stateMutability": "view",
      "type": "function"
    },
    {
      "inputs": [],
      "name": "quorumNumerator",
      "outputs": [
        {
          "internalType": "uint256",
          "name": "",
          "type": "uint256"
        }
      ],
      "stateMutability": "view",
      "type": "function"
    },
    {
      "inputs": [
        {
          "internalType": "address",
          "name": "target",
          "type": "address"
        },
        {
          "internalType": "uint256",
          "name": "value",
          "type": "uint256"
        },
        {
          "internalType": "bytes",
          "name": "data",
          "type": "bytes"
        }
      ],
      "name": "relay",
      "outputs": [],
      "stateMutability": "nonpayable",
      "type": "function"
    },
    {
      "inputs": [
        {
          "internalType": "uint256",
          "name": "newProposalThreshold",
          "type": "uint256"
        }
      ],
      "name": "setProposalThreshold",
      "outputs": [],
      "stateMutability": "nonpayable",
      "type": "function"
    },
    {
      "inputs": [
        {
          "internalType": "uint256",
          "name": "newVotingDelay",
          "type": "uint256"
        }
      ],
      "name": "setVotingDelay",
      "outputs": [],
      "stateMutability": "nonpayable",
      "type": "function"
    },
    {
      "inputs": [
        {
          "internalType": "uint256",
          "name": "newVotingPeriod",
          "type": "uint256"
        }
      ],
      "name": "setVotingPeriod",
      "outputs": [],
      "stateMutability": "nonpayable",
      "type": "function"
    },
    {
      "inputs": [],
      "name": "timelock",
      "outputs": [
        {
          "internalType": "address",
          "name": "",
          "type": "address"
        }
      ],
      "stateMutability": "view",
      "type": "function"
    },
    {
      "inputs": [],
      "name": "token",
      "outputs": [
        {
          "internalType": "contract IVotes",
          "name": "",
          "type": "address"
        }
      ],
      "stateMutability": "view",
      "type": "function"
    },
    {
      "inputs": [
        {
          "internalType": "uint256",
          "name": "newQuorumNumerator",
          "type": "uint256"
        }
      ],
      "name": "updateQuorumNumerator",
      "outputs": [],
      "stateMutability": "nonpayable",
      "type": "function"
    },
    {
      "inputs": [
        {
          "internalType": "contract TimelockController",
          "name": "newTimelock",
          "type": "address"
        }
      ],
      "name": "updateTimelock",
      "outputs": [],
      "stateMutability": "nonpayable",
      "type": "function"
    },
    {
      "inputs": [],
      "name": "version",
      "outputs": [
        {
          "internalType": "string",
          "name": "",
          "type": "string"
        }
      ],
      "stateMutability": "view",
      "type": "function"
    },
    {
      "stateMutability": "payable",
      "type": "receive"
    },
    {
      "inputs": [],
      "name": "votingDelay",
      "outputs": [
        {
          "internalType": "uint256",
          "name": "",
          "type": "uint256"
        }
      ],
      "stateMutability": "view",
      "type": "function"
    },
    {
      "inputs": [],
      "name": "votingPeriod",
      "outputs": [
        {
          "internalType": "uint256",
          "name": "",
          "type": "uint256"
        }
      ],
      "stateMutability": "view",
      "type": "function"
    },
    {
      "inputs": [
        {
          "internalType": "uint256",
          "name": "blockNumber",
          "type": "uint256"
        }
      ],
      "name": "quorum",
      "outputs": [
        {
          "internalType": "uint256",
          "name": "",
          "type": "uint256"
        }
      ],
      "stateMutability": "view",
      "type": "function"
    },
    {
      "inputs": [
        {
          "internalType": "uint256",
          "name": "proposalId",
          "type": "uint256"
        }
      ],
      "name": "state",
      "outputs": [
        {
          "internalType": "enum IGovernor.ProposalState",
          "name": "",
          "type": "uint8"
        }
      ],
      "stateMutability": "view",
      "type": "function"
    },
    {
      "inputs": [
        {
          "internalType": "address[]",
          "name": "targets",
          "type": "address[]"
        },
        {
          "internalType": "uint256[]",
          "name": "values",
          "type": "uint256[]"
        },
        {
          "internalType": "bytes[]",
          "name": "calldatas",
          "type": "bytes[]"
        },
        {
          "internalType": "string",
          "name": "description",
          "type": "string"
        }
      ],
      "name": "propose",
      "outputs": [
        {
          "internalType": "uint256",
          "name": "",
          "type": "uint256"
        }
      ],
      "stateMutability": "nonpayable",
      "type": "function"
    },
    {
      "inputs": [],
      "name": "proposalThreshold",
      "outputs": [
        {
          "internalType": "uint256",
          "name": "",
          "type": "uint256"
        }
      ],
      "stateMutability": "view",
      "type": "function"
    },
    {
      "inputs": [
        {
          "internalType": "bytes4",
          "name": "interfaceId",
          "type": "bytes4"
        }
      ],
      "name": "supportsInterface",
      "outputs": [
        {
          "internalType": "bool",
          "name": "",
          "type": "bool"
        }
      ],
      "stateMutability": "view",
      "type": "function"
    }
  ],
  "bytecode": "0x6101606040523480156200001257600080fd5b5060405162003641380380620036418339810160408190526200003591620004a4565b806033836002610b4060006040518060400160405280600a81526020016926bca3b7bb32b93737b960b11b81525080620000746200016e60201b60201c565b815160208084019190912082518383012060e08290526101008190524660a0818152604080517f8b73c3c69bb8fe3d512ecc4cf759cc79239f7b179b0ffacaa9a75d522b39400f81880181905281830187905260608201869052608082019490945230818401528151808203909301835260c00190528051940193909320919290916080523060c05261012052505082516200011a9250600091506020840190620003e5565b506200012890508362000189565b6200013382620001ca565b6200013e8162000271565b5050506001600160a01b0316610140526200015981620002b2565b5062000165816200037c565b50505062000520565b6040805180820190915260018152603160f81b602082015290565b60025460408051918252602082018390527fc565b045403dc03c2eea82b81a0465edad9e2e7fc4d97e11421c209da93d7a93910160405180910390a1600255565b60008111620002305760405162461bcd60e51b815260206004820152602760248201527f476f7665726e6f7253657474696e67733a20766f74696e6720706572696f6420604482015266746f6f206c6f7760c81b60648201526084015b60405180910390fd5b60035460408051918252602082018390527f7e3f7f0708a84de9203036abaa450dccc85ad5ff52f78c170f3edb55cf5e8828910160405180910390a1600355565b60045460408051918252602082018390527fccb45da8d5717e6c4544694297c4ba5cf151d455c9bb0ed4fc7a38411bc05461910160405180910390a1600455565b6064811115620003375760405162461bcd60e51b815260206004820152604360248201527f476f7665726e6f72566f74657351756f72756d4672616374696f6e3a2071756f60448201527f72756d4e756d657261746f72206f7665722071756f72756d44656e6f6d696e616064820152623a37b960e91b608482015260a40162000227565b600680549082905560408051828152602081018490527f0553476bf02ef2726e8ce5ced78d63e26e602e4a2257b1f559418e24b4633997910160405180910390a15050565b600754604080516001600160a01b03928316815291831660208301527f08f74ea46ef7894f65eabfb5e6e695de773a000b47c529ab559178069b226401910160405180910390a1600780546001600160a01b0319166001600160a01b0392909216919091179055565b828054620003f390620004e3565b90600052602060002090601f01602090048101928262000417576000855562000462565b82601f106200043257805160ff191683800117855562000462565b8280016001018555821562000462579182015b828111156200046257825182559160200191906001019062000445565b506200047092915062000474565b5090565b5b8082111562000470576000815560010162000475565b6001600160a01b0381168114620004a157600080fd5b50565b60008060408385031215620004b857600080fd5b8251620004c5816200048b565b6020840151909250620004d8816200048b565b809150509250929050565b600181811c90821680620004f857607f821691505b602082108114156200051a57634e487b7160e01b600052602260045260246000fd5b50919050565b60805160a05160c05160e0516101005161012051610140516130b862000589600039600081816106fa015281816110d20152611bb001526000611db501526000611e0401526000611ddf01526000611d3801526000611d6201526000611d8c01526130b86000f3fe6080604052600436106102025760003560e01c80637d5e81e21161011d578063c59057e4116100b0578063ea0217cf1161007f578063ece40cc111610064578063ece40cc1146106a8578063f8ce560a146106c8578063fc0c546a146106e857600080fd5b8063ea0217cf14610668578063eb9019d41461068857600080fd5b8063c59057e41461059c578063d33219b4146105bc578063dd4e2ba5146105ee578063deaaa7cc1461063457600080fd5b8063ab58fb8e116100ec578063ab58fb8e14610527578063b58131b014610547578063c01f9e371461055c578063c28bc2fa1461057c57600080fd5b80637d5e81e2146104be57806397c3d334146104de578063a7713a70146104f2578063a890c9101461050757600080fd5b80633bccf4fd1161019557806354fd4d501161016457806354fd4d5014610418578063567813881461045e57806370b0f6601461047e5780637b3c71d31461049e57600080fd5b80633bccf4fd1461032c5780633e4f49e61461034c5780634385963214610379578063544ffc9c146103c357600080fd5b8063160cbed7116101d1578063160cbed7146102c45780632656227d146102e45780632d63f693146102f75780633932abb11461031757600080fd5b806301ffc9a71461022a57806302a251a31461025f57806306f3f9e61461028257806306fdde03146102a257600080fd5b36610225573061021061071c565b6001600160a01b03161461022357600080fd5b005b600080fd5b34801561023657600080fd5b5061024a6102453660046125d4565b610735565b60405190151581526020015b60405180910390f35b34801561026b57600080fd5b50610274610746565b604051908152602001610256565b34801561028e57600080fd5b5061022361029d3660046125fe565b610751565b3480156102ae57600080fd5b506102b76107ca565b6040516102569190612673565b3480156102d057600080fd5b506102746102df3660046128c2565b61085c565b6102746102f23660046128c2565b610ae1565b34801561030357600080fd5b506102746103123660046125fe565b610bee565b34801561032357600080fd5b50610274610c27565b34801561033857600080fd5b50610274610347366004612968565b610c32565b34801561035857600080fd5b5061036c6103673660046125fe565b610cc6565b60405161025691906129cc565b34801561038557600080fd5b5061024a6103943660046129f4565b60008281526005602090815260408083206001600160a01b038516845260030190915290205460ff1692915050565b3480156103cf57600080fd5b506103fd6103de3660046125fe565b6000908152600560205260409020805460018201546002909201549092565b60408051938452602084019290925290820152606001610256565b34801561042457600080fd5b5060408051808201909152600181527f310000000000000000000000000000000000000000000000000000000000000060208201526102b7565b34801561046a57600080fd5b50610274610479366004612a24565b610cd1565b34801561048a57600080fd5b506102236104993660046125fe565b610cfa565b3480156104aa57600080fd5b506102746104b9366004612a99565b610d6b565b3480156104ca57600080fd5b506102746104d9366004612af3565b610dbd565b3480156104ea57600080fd5b506064610274565b3480156104fe57600080fd5b50600654610274565b34801561051357600080fd5b50610223610522366004612bb4565b610dd4565b34801561053357600080fd5b506102746105423660046125fe565b610e45565b34801561055357600080fd5b50610274610ef9565b34801561056857600080fd5b506102746105773660046125fe565b610f04565b34801561058857600080fd5b50610223610597366004612bd1565b610f34565b3480156105a857600080fd5b506102746105b73660046128c2565b610fe5565b3480156105c857600080fd5b506007546001600160a01b03165b6040516001600160a01b039091168152602001610256565b3480156105fa57600080fd5b506040805180820190915260208082527f737570706f72743d627261766f2671756f72756d3d666f722c6162737461696e908201526102b7565b34801561064057600080fd5b506102747f150214d74d59b7d1e90c73fc22ef3d991dd0a76b046543d4d80ab92d2a50328f81565b34801561067457600080fd5b506102236106833660046125fe565b61101f565b34801561069457600080fd5b506102746106a3366004612c15565b611090565b3480156106b457600080fd5b506102236106c33660046125fe565b61113f565b3480156106d457600080fd5b506102746106e33660046125fe565b6111b0565b3480156106f457600080fd5b506105d67f000000000000000000000000000000000000000000000000000000000000000081565b60006107306007546001600160a01b031690565b905090565b6000610740826111bb565b92915050565b600061073060035490565b61075961071c565b6001600160a01b0316336001600160a01b0316146107be5760405162461bcd60e51b815260206004820152601860248201527f476f7665726e6f723a206f6e6c79476f7665726e616e6365000000000000000060448201526064015b60405180910390fd5b6107c7816111f9565b50565b6060600080546107d990612c41565b80601f016020809104026020016040519081016040528092919081815260200182805461080590612c41565b80156108525780601f1061082757610100808354040283529160200191610852565b820191906000526020600020905b81548152906001019060200180831161083557829003601f168201915b5050505050905090565b60008061086b86868686610fe5565b9050600461087882610cc6565b6007811115610889576108896129b6565b146108e05760405162461bcd60e51b815260206004820152602160248201527f476f7665726e6f723a2070726f706f73616c206e6f74207375636365737366756044820152601b60fa1b60648201526084016107b5565b600754604080517ff27a0c9200000000000000000000000000000000000000000000000000000000815290516000926001600160a01b03169163f27a0c929160048083019260209291908290030181865afa158015610943573d6000803e3d6000fd5b505050506040513d601f19601f820116820180604052508101906109679190612c7c565b6007546040517fb1c5f4270000000000000000000000000000000000000000000000000000000081529192506001600160a01b03169063b1c5f427906109ba908a908a908a906000908b90600401612d5e565b602060405180830381865afa1580156109d7573d6000803e3d6000fd5b505050506040513d601f19601f820116820180604052508101906109fb9190612c7c565b6000838152600860205260408082209290925560075491517f8f2a0bb00000000000000000000000000000000000000000000000000000000081526001600160a01b0390921691638f2a0bb091610a5f918b918b918b91908b908990600401612dac565b600060405180830381600087803b158015610a7957600080fd5b505af1158015610a8d573d6000803e3d6000fd5b505050507f9a2e42fd6722813d69113e7d0079d3d940171428df7373df9c7f7617cfda2892828242610abf9190612e1a565b6040805192835260208301919091520160405180910390a15095945050505050565b600080610af086868686610fe5565b90506000610afd82610cc6565b90506004816007811115610b1357610b136129b6565b1480610b3057506005816007811115610b2e57610b2e6129b6565b145b610b865760405162461bcd60e51b815260206004820152602160248201527f476f7665726e6f723a2070726f706f73616c206e6f74207375636365737366756044820152601b60fa1b60648201526084016107b5565b600082815260016020818152604092839020600201805460ff191690921790915590518381527f712ae1383f79ac853f8d882153778e0260ef8f03b504e2866e0593e04d2b291f910160405180910390a1610be482888888886112db565b5095945050505050565b600081815260016020908152604080832081519283019091525467ffffffffffffffff16908190525b67ffffffffffffffff1692915050565b600061073060025490565b604080517f150214d74d59b7d1e90c73fc22ef3d991dd0a76b046543d4d80ab92d2a50328f602082015290810186905260ff851660608201526000908190610c9e90610c9690608001604051602081830303815290604052805190602001206112e8565b868686611351565b9050610cbb8782886040518060200160405280600081525061136f565b979650505050505050565b600061074082611495565b600080339050610cf28482856040518060200160405280600081525061136f565b949350505050565b610d0261071c565b6001600160a01b0316336001600160a01b031614610d625760405162461bcd60e51b815260206004820152601860248201527f476f7665726e6f723a206f6e6c79476f7665726e616e6365000000000000000060448201526064016107b5565b6107c781611611565b600080339050610db386828787878080601f01602080910402602001604051908101604052809392919081815260200183838082843760009201919091525061136f92505050565b9695505050505050565b6000610dcb85858585611652565b95945050505050565b610ddc61071c565b6001600160a01b0316336001600160a01b031614610e3c5760405162461bcd60e51b815260206004820152601860248201527f476f7665726e6f723a206f6e6c79476f7665726e616e6365000000000000000060448201526064016107b5565b6107c7816119db565b6007546000828152600860205260408082205490517fd45c44350000000000000000000000000000000000000000000000000000000081526004810191909152909182916001600160a01b039091169063d45c443590602401602060405180830381865afa158015610ebb573d6000803e3d6000fd5b505050506040513d601f19601f82011682018060405250810190610edf9190612c7c565b905080600114610eef5780610ef2565b60005b9392505050565b600061073060045490565b600081815260016020818152604080842081519283019091529091015467ffffffffffffffff1690819052610c17565b610f3c61071c565b6001600160a01b0316336001600160a01b031614610f9c5760405162461bcd60e51b815260206004820152601860248201527f476f7665726e6f723a206f6e6c79476f7665726e616e6365000000000000000060448201526064016107b5565b610fde8483838080601f016020809104026020016040519081016040528093929190818152602001838380828437600092019190915250889250611a5c915050565b5050505050565b600084848484604051602001610ffe9493929190612e32565b60408051601f19818403018152919052805160209091012095945050505050565b61102761071c565b6001600160a01b0316336001600160a01b0316146110875760405162461bcd60e51b815260206004820152601860248201527f476f7665726e6f723a206f6e6c79476f7665726e616e6365000000000000000060448201526064016107b5565b6107c781611a82565b6040517f3a46b1a80000000000000000000000000000000000000000000000000000000081526001600160a01b038381166004830152602482018390526000917f000000000000000000000000000000000000000000000000000000000000000090911690633a46b1a890604401602060405180830381865afa15801561111b573d6000803e3d6000fd5b505050506040513d601f19601f82011682018060405250810190610ef29190612c7c565b61114761071c565b6001600160a01b0316336001600160a01b0316146111a75760405162461bcd60e51b815260206004820152601860248201527f476f7665726e6f723a206f6e6c79476f7665726e616e6365000000000000000060448201526064016107b5565b6107c781611b39565b600061074082611b7a565b60006001600160e01b031982167f6e665ced000000000000000000000000000000000000000000000000000000001480610740575061074082611c37565b60648111156112965760405162461bcd60e51b815260206004820152604360248201527f476f7665726e6f72566f74657351756f72756d4672616374696f6e3a2071756f60448201527f72756d4e756d657261746f72206f7665722071756f72756d44656e6f6d696e6160648201527f746f720000000000000000000000000000000000000000000000000000000000608482015260a4016107b5565b600680549082905560408051828152602081018490527f0553476bf02ef2726e8ce5ced78d63e26e602e4a2257b1f559418e24b4633997910160405180910390a15050565b610fde8585858585611c9e565b60006107406112f5611d2b565b836040517f19010000000000000000000000000000000000000000000000000000000000006020820152602281018390526042810182905260009060620160405160208183030381529060405280519060200120905092915050565b600080600061136287878787611e52565b91509150610be481611f3f565b600084815260016020819052604082209061138987610cc6565b600781111561139a5761139a6129b6565b1461140d5760405162461bcd60e51b815260206004820152602360248201527f476f7665726e6f723a20766f7465206e6f742063757272656e746c792061637460448201527f697665000000000000000000000000000000000000000000000000000000000060648201526084016107b5565b6040805160208101909152815467ffffffffffffffff1690819052600090611436908790611090565b9050611444878787846120fa565b856001600160a01b03167fb8e138887d0aa13bab447e82de9d5c1777041ecd21ca36ba824ff1e6c07ddda4888784886040516114839493929190612e7d565b60405180910390a29695505050505050565b6000806114a183612297565b905060048160078111156114b7576114b76129b6565b146114c25792915050565b600083815260086020526040902054806114dd575092915050565b6007546040517f2ab0f529000000000000000000000000000000000000000000000000000000008152600481018390526001600160a01b0390911690632ab0f52990602401602060405180830381865afa15801561153f573d6000803e3d6000fd5b505050506040513d601f19601f820116820180604052508101906115639190612ea5565b15611572575060079392505050565b6007546040517f584b153e000000000000000000000000000000000000000000000000000000008152600481018390526001600160a01b039091169063584b153e90602401602060405180830381865afa1580156115d4573d6000803e3d6000fd5b505050506040513d601f19601f820116820180604052508101906115f89190612ea5565b15611607575060059392505050565b5060029392505050565b60025460408051918252602082018390527fc565b045403dc03c2eea82b81a0465edad9e2e7fc4d97e11421c209da93d7a93910160405180910390a1600255565b600061165c610ef9565b61166b336106a3600143612ec7565b10156117055760405162461bcd60e51b815260206004820152604360248201527f476f7665726e6f72436f6d7061746962696c697479427261766f3a2070726f7060448201527f6f73657220766f7465732062656c6f772070726f706f73616c2074687265736860648201527f6f6c640000000000000000000000000000000000000000000000000000000000608482015260a4016107b5565b600061171a8686868680519060200120610fe5565b905084518651146117775760405162461bcd60e51b815260206004820152602160248201527f476f7665726e6f723a20696e76616c69642070726f706f73616c206c656e67746044820152600d60fb1b60648201526084016107b5565b83518651146117d25760405162461bcd60e51b815260206004820152602160248201527f476f7665726e6f723a20696e76616c69642070726f706f73616c206c656e67746044820152600d60fb1b60648201526084016107b5565b60008651116118235760405162461bcd60e51b815260206004820152601860248201527f476f7665726e6f723a20656d7074792070726f706f73616c000000000000000060448201526064016107b5565b6000818152600160209081526040918290208251918201909252815467ffffffffffffffff1690819052156118c05760405162461bcd60e51b815260206004820152602160248201527f476f7665726e6f723a2070726f706f73616c20616c726561647920657869737460448201527f730000000000000000000000000000000000000000000000000000000000000060648201526084016107b5565b60006118d26118cd610c27565b6123a3565b6118db436123a3565b6118e59190612ede565b905060006118f46118cd610746565b6118fe9083612ede565b835467ffffffffffffffff191667ffffffffffffffff8416178455905060018301805467ffffffffffffffff191667ffffffffffffffff83161790557f7d84a6263ae0d98d3329bd7b46bb4e8d6f98cd35a7adb45c274c8b7fd5ebd5e084338b8b8d5167ffffffffffffffff81111561197957611979612686565b6040519080825280602002602001820160405280156119ac57816020015b60608152602001906001900390816119975790505b508c88888e6040516119c699989796959493929190612f0a565b60405180910390a15091979650505050505050565b600754604080516001600160a01b03928316815291831660208301527f08f74ea46ef7894f65eabfb5e6e695de773a000b47c529ab559178069b226401910160405180910390a1600780547fffffffffffffffffffffffff0000000000000000000000000000000000000000166001600160a01b0392909216919091179055565b6060610cf284848460405180606001604052806029815260200161305a60299139612427565b60008111611af85760405162461bcd60e51b815260206004820152602760248201527f476f7665726e6f7253657474696e67733a20766f74696e6720706572696f642060448201527f746f6f206c6f770000000000000000000000000000000000000000000000000060648201526084016107b5565b60035460408051918252602082018390527f7e3f7f0708a84de9203036abaa450dccc85ad5ff52f78c170f3edb55cf5e8828910160405180910390a1600355565b60045460408051918252602082018390527fccb45da8d5717e6c4544694297c4ba5cf151d455c9bb0ed4fc7a38411bc05461910160405180910390a1600455565b600060646006546040517f8e539e8c000000000000000000000000000000000000000000000000000000008152600481018590527f00000000000000000000000000000000000000000000000000000000000000006001600160a01b031690638e539e8c90602401602060405180830381865afa158015611bff573d6000803e3d6000fd5b505050506040513d601f19601f82011682018060405250810190611c239190612c7c565b611c2d9190612ffc565b610740919061301b565b60006001600160e01b031982167fbf26d89700000000000000000000000000000000000000000000000000000000148061074057507f01ffc9a7000000000000000000000000000000000000000000000000000000006001600160e01b0319831614610740565b6007546040517fe38335e50000000000000000000000000000000000000000000000000000000081526001600160a01b039091169063e38335e5903490611cf2908890889088906000908990600401612d5e565b6000604051808303818588803b158015611d0b57600080fd5b505af1158015611d1f573d6000803e3d6000fd5b50505050505050505050565b6000306001600160a01b037f000000000000000000000000000000000000000000000000000000000000000016148015611d8457507f000000000000000000000000000000000000000000000000000000000000000046145b15611dae57507f000000000000000000000000000000000000000000000000000000000000000090565b50604080517f00000000000000000000000000000000000000000000000000000000000000006020808301919091527f0000000000000000000000000000000000000000000000000000000000000000828401527f000000000000000000000000000000000000000000000000000000000000000060608301524660808301523060a0808401919091528351808403909101815260c0909201909252805191012090565b6000807f7fffffffffffffffffffffffffffffff5d576e7357a4501ddfe92f46681b20a0831115611e895750600090506003611f36565b8460ff16601b14158015611ea157508460ff16601c14155b15611eb25750600090506004611f36565b6040805160008082526020820180845289905260ff881692820192909252606081018690526080810185905260019060a0016020604051602081039080840390855afa158015611f06573d6000803e3d6000fd5b5050604051601f1901519150506001600160a01b038116611f2f57600060019250925050611f36565b9150600090505b94509492505050565b6000816004811115611f5357611f536129b6565b1415611f5c5750565b6001816004811115611f7057611f706129b6565b1415611fbe5760405162461bcd60e51b815260206004820152601860248201527f45434453413a20696e76616c6964207369676e6174757265000000000000000060448201526064016107b5565b6002816004811115611fd257611fd26129b6565b14156120205760405162461bcd60e51b815260206004820152601f60248201527f45434453413a20696e76616c6964207369676e6174757265206c656e6774680060448201526064016107b5565b6003816004811115612034576120346129b6565b141561208d5760405162461bcd60e51b815260206004820152602260248201527f45434453413a20696e76616c6964207369676e6174757265202773272076616c604482015261756560f01b60648201526084016107b5565b60048160048111156120a1576120a16129b6565b14156107c75760405162461bcd60e51b815260206004820152602260248201527f45434453413a20696e76616c6964207369676e6174757265202776272076616c604482015261756560f01b60648201526084016107b5565b60008481526005602090815260408083206001600160a01b0387168452600381019092529091205460ff16156121985760405162461bcd60e51b815260206004820152602760248201527f476f7665726e6f72566f74696e6753696d706c653a20766f746520616c72656160448201527f647920636173740000000000000000000000000000000000000000000000000060648201526084016107b5565b6001600160a01b03841660009081526003820160205260408120805460ff1916600117905560ff168360ff1614156121e957818160000160008282546121de9190612e1a565b90915550610fde9050565b60ff83166001141561220957818160010160008282546121de9190612e1a565b60ff83166002141561222957818160020160008282546121de9190612e1a565b60405162461bcd60e51b815260206004820152603560248201527f476f7665726e6f72566f74696e6753696d706c653a20696e76616c696420766160448201527f6c756520666f7220656e756d20566f746554797065000000000000000000000060648201526084016107b5565b6000818152600160205260408120600281015460ff16156122bb5750600792915050565b6002810154610100900460ff16156122d65750600292915050565b60006122e184610bee565b9050806123305760405162461bcd60e51b815260206004820152601d60248201527f476f7665726e6f723a20756e6b6e6f776e2070726f706f73616c20696400000060448201526064016107b5565b438110612341575060009392505050565b600061234c85610f04565b905043811061236057506001949350505050565b61236985612564565b8015612388575060008581526005602052604090208054600190910154115b1561239857506004949350505050565b506003949350505050565b600067ffffffffffffffff8211156124235760405162461bcd60e51b815260206004820152602660248201527f53616665436173743a2076616c756520646f65736e27742066697420696e203660448201527f342062697473000000000000000000000000000000000000000000000000000060648201526084016107b5565b5090565b60608247101561249f5760405162461bcd60e51b815260206004820152602660248201527f416464726573733a20696e73756666696369656e742062616c616e636520666f60448201527f722063616c6c000000000000000000000000000000000000000000000000000060648201526084016107b5565b6001600160a01b0385163b6124f65760405162461bcd60e51b815260206004820152601d60248201527f416464726573733a2063616c6c20746f206e6f6e2d636f6e747261637400000060448201526064016107b5565b600080866001600160a01b03168587604051612512919061303d565b60006040518083038185875af1925050503d806000811461254f576040519150601f19603f3d011682016040523d82523d6000602084013e612554565b606091505b5091509150610cbb82828661259b565b6000818152600560205260408120600281015460018201546125869190612e1a565b6125926106e385610bee565b11159392505050565b606083156125aa575081610ef2565b8251156125ba5782518084602001fd5b8160405162461bcd60e51b81526004016107b59190612673565b6000602082840312156125e657600080fd5b81356001600160e01b031981168114610ef257600080fd5b60006020828403121561261057600080fd5b5035919050565b60005b8381101561263257818101518382015260200161261a565b83811115612641576000848401525b50505050565b6000815180845261265f816020860160208601612617565b601f01601f19169290920160200192915050565b602081526000610ef26020830184612647565b634e487b7160e01b600052604160045260246000fd5b604051601f8201601f1916810167ffffffffffffffff811182821017156126c5576126c5612686565b604052919050565b600067ffffffffffffffff8211156126e7576126e7612686565b5060051b60200190565b6001600160a01b03811681146107c757600080fd5b600082601f83011261271757600080fd5b8135602061272c612727836126cd565b61269c565b82815260059290921b8401810191818101908684111561274b57600080fd5b8286015b8481101561276f578035612762816126f1565b835291830191830161274f565b509695505050505050565b600082601f83011261278b57600080fd5b8135602061279b612727836126cd565b82815260059290921b840181019181810190868411156127ba57600080fd5b8286015b8481101561276f57803583529183019183016127be565b600067ffffffffffffffff8311156127ef576127ef612686565b612802601f8401601f191660200161269c565b905082815283838301111561281657600080fd5b828260208301376000602084830101529392505050565b600082601f83011261283e57600080fd5b8135602061284e612727836126cd565b82815260059290921b8401810191818101908684111561286d57600080fd5b8286015b8481101561276f57803567ffffffffffffffff8111156128915760008081fd5b8701603f810189136128a35760008081fd5b6128b48986830135604084016127d5565b845250918301918301612871565b600080600080608085870312156128d857600080fd5b843567ffffffffffffffff808211156128f057600080fd5b6128fc88838901612706565b9550602087013591508082111561291257600080fd5b61291e8883890161277a565b9450604087013591508082111561293457600080fd5b506129418782880161282d565b949793965093946060013593505050565b803560ff8116811461296357600080fd5b919050565b600080600080600060a0868803121561298057600080fd5b8535945061299060208701612952565b935061299e60408701612952565b94979396509394606081013594506080013592915050565b634e487b7160e01b600052602160045260246000fd5b60208101600883106129ee57634e487b7160e01b600052602160045260246000fd5b91905290565b60008060408385031215612a0757600080fd5b823591506020830135612a19816126f1565b809150509250929050565b60008060408385031215612a3757600080fd5b82359150612a4760208401612952565b90509250929050565b60008083601f840112612a6257600080fd5b50813567ffffffffffffffff811115612a7a57600080fd5b602083019150836020828501011115612a9257600080fd5b9250929050565b60008060008060608587031215612aaf57600080fd5b84359350612abf60208601612952565b9250604085013567ffffffffffffffff811115612adb57600080fd5b612ae787828801612a50565b95989497509550505050565b60008060008060808587031215612b0957600080fd5b843567ffffffffffffffff80821115612b2157600080fd5b612b2d88838901612706565b95506020870135915080821115612b4357600080fd5b612b4f8883890161277a565b94506040870135915080821115612b6557600080fd5b612b718883890161282d565b93506060870135915080821115612b8757600080fd5b508501601f81018713612b9957600080fd5b612ba8878235602084016127d5565b91505092959194509250565b600060208284031215612bc657600080fd5b8135610ef2816126f1565b60008060008060608587031215612be757600080fd5b8435612bf2816126f1565b935060208501359250604085013567ffffffffffffffff811115612adb57600080fd5b60008060408385031215612c2857600080fd5b8235612c33816126f1565b946020939093013593505050565b600181811c90821680612c5557607f821691505b60208210811415612c7657634e487b7160e01b600052602260045260246000fd5b50919050565b600060208284031215612c8e57600080fd5b5051919050565b600081518084526020808501945080840160005b83811015612cce5781516001600160a01b031687529582019590820190600101612ca9565b509495945050505050565b600081518084526020808501945080840160005b83811015612cce57815187529582019590820190600101612ced565b600081518084526020808501808196508360051b8101915082860160005b85811015612d51578284038952612d3f848351612647565b98850198935090840190600101612d27565b5091979650505050505050565b60a081526000612d7160a0830188612c95565b8281036020840152612d838188612cd9565b90508281036040840152612d978187612d09565b60608401959095525050608001529392505050565b60c081526000612dbf60c0830189612c95565b8281036020840152612dd18189612cd9565b90508281036040840152612de58188612d09565b60608401969096525050608081019290925260a0909101529392505050565b634e487b7160e01b600052601160045260246000fd5b60008219821115612e2d57612e2d612e04565b500190565b608081526000612e456080830187612c95565b8281036020840152612e578187612cd9565b90508281036040840152612e6b8186612d09565b91505082606083015295945050505050565b84815260ff84166020820152826040820152608060608201526000610db36080830184612647565b600060208284031215612eb757600080fd5b81518015158114610ef257600080fd5b600082821015612ed957612ed9612e04565b500390565b600067ffffffffffffffff808316818516808303821115612f0157612f01612e04565b01949350505050565b60006101208b835260206001600160a01b038c1681850152816040850152612f348285018c612c95565b91508382036060850152612f48828b612cd9565b915083820360808501528189518084528284019150828160051b850101838c0160005b83811015612f9957601f19878403018552612f87838351612647565b94860194925090850190600101612f6b565b505086810360a0880152612fad818c612d09565b945050505050612fc960c084018767ffffffffffffffff169052565b67ffffffffffffffff851660e0840152828103610100840152612fec8185612647565b9c9b505050505050505050505050565b600081600019048311821515161561301657613016612e04565b500290565b60008261303857634e487b7160e01b600052601260045260246000fd5b500490565b6000825161304f818460208701612617565b919091019291505056fe416464726573733a206c6f772d6c6576656c2063616c6c20776974682076616c7565206661696c6564a26469706673582212205360ef6eb2b36fcd83a06f99c5886912291ca021d10e4decc07a7489d998a21f64736f6c634300080b0033",
  "immutableReferences": {
    "3145": [
      {
        "length": 32,
        "start": 1786
      },
      {
        "length": 32,
        "start": 4306
      },
      {
        "length": 32,
        "start": 7088
      }
    ],
    "5826": [
      {
        "length": 32,
        "start": 7564
      }
    ],
    "5828": [
      {
        "length": 32,
        "start": 7522
      }
    ],
    "5830": [
      {
        "length": 32,
        "start": 7480
      }
    ],
    "5832": [
      {
        "length": 32,
        "start": 7647
      }
    ],
    "5834": [
      {
        "length": 32,
        "start": 7684
      }
    ],
    "5836": [
      {
        "length": 32,
        "start": 7605
      }
    ]
  },
  "source": "// SPDX-License-Identifier: UNLICENSED\r\npragma solidity 0.8.11;\r\n\r\nimport \"@openzeppelin/contracts/governance/Governor.sol\";\r\nimport \"@openzeppelin/contracts/governance/extensions/GovernorSettings.sol\";\r\nimport \"@openzeppelin/contracts/governance/extensions/GovernorCountingSimple.sol\";\r\nimport \"@openzeppelin/contracts/governance/extensions/GovernorVotes.sol\";\r\nimport \"@openzeppelin/contracts/governance/extensions/GovernorVotesQuorumFraction.sol\";\r\nimport \"@openzeppelin/contracts/governance/extensions/GovernorTimelockControl.sol\";\r\n\r\n// TODO: Change voteDelay and votePeriod\r\ncontract MyGovernor is\r\n    Governor,\r\n    GovernorSettings,\r\n    GovernorCountingSimple,\r\n    GovernorVotes,\r\n    GovernorVotesQuorumFraction,\r\n    GovernorTimelockControl\r\n{\r\n    constructor(IVotes _token, TimelockController _timelock)\r\n        Governor(\"MyGovernor\")\r\n        GovernorSettings(\r\n            2, /* 2 block */\r\n            2880, /* 1 day */\r\n            0\r\n        )\r\n        GovernorVotes(_token)\r\n        GovernorVotesQuorumFraction(51)\r\n        GovernorTimelockControl(_timelock)\r\n    {}\r\n\r\n    // The following functions are overrides required by Solidity.\r\n\r\n    function votingDelay()\r\n        public\r\n        view\r\n        override(IGovernor, GovernorSettings)\r\n        returns (uint256)\r\n    {\r\n        return super.votingDelay();\r\n    }\r\n\r\n    function votingPeriod()\r\n        public\r\n        view\r\n        override(IGovernor, GovernorSettings)\r\n        returns (uint256)\r\n    {\r\n        return super.votingPeriod();\r\n    }\r\n\r\n    function quorum(uint256 blockNumber)\r\n        public\r\n        view\r\n        override(IGovernor, GovernorVotesQuorumFraction)\r\n        returns (uint256)\r\n    {\r\n        return super.quorum(blockNumber);\r\n    }\r\n\r\n    function state(uint256 proposalId)\r\n        public\r\n        view\r\n        override(Governor, GovernorTimelockControl)\r\n        returns (ProposalState)\r\n    {\r\n        return super.state(proposalId);\r\n    }\r\n\r\n    function propose(\r\n        address[] memory targets,\r\n        uint256[] memory values,\r\n        bytes[] memory calldatas,\r\n        string memory description\r\n    ) public override(Governor, IGovernor) returns (uint256) {\r\n        return super.propose(targets, values, calldatas, description);\r\n    }\r\n\r\n    function proposalThreshold()\r\n        public\r\n        view\r\n        override(Governor, GovernorSettings)\r\n        returns (uint256)\r\n    {\r\n        return super.proposalThreshold();\r\n    }\r\n\r\n    function _execute(\r\n        uint256 proposalId,\r\n        address[] memory targets,\r\n        uint256[] memory values,\r\n        bytes[] memory calldatas,\r\n        bytes32 descriptionHash\r\n    ) internal override(Governor, GovernorTimelockControl) {\r\n        super._execute(proposalId, targets, values, calldatas, descriptionHash);\r\n    }\r\n\r\n    function _cancel(\r\n        address[] memory targets,\r\n        uint256[] memory values,\r\n        bytes[] memory calldatas,\r\n        bytes32 descriptionHash\r\n    ) internal override(Governor, GovernorTimelockControl) returns (uint256) {\r\n        return super._cancel(targets, values, calldatas, descriptionHash);\r\n    }\r\n\r\n    function _executor()\r\n        internal\r\n        view\r\n        override(Governor, GovernorTimelockControl)\r\n        returns (address)\r\n    {\r\n        return super._executor();\r\n    }\r\n\r\n    function supportsInterface(bytes4 interfaceId)\r\n        public\r\n        view\r\n        override(Governor, GovernorTimelockControl)\r\n        returns (bool)\r\n    {\r\n        return super.supportsInterface(interfaceId);\r\n    }\r\n}\r\n",
  "sourcePath": "D:\\ProjectSolidity\\ProjectTalaxeum\\TalaxToken\\contracts\\governance\\Governance.sol",
  "compiler": {
    "name": "solc",
    "version": "0.8.11+commit.d7f03943.Emscripten.clang"
  },
  "schemaVersion": "3.4.9",
  "updatedAt": "2022-09-30T09:42:07.945Z",
  "devdoc": {
    "kind": "dev",
    "methods": {
      "COUNTING_MODE()": {
        "details": "See {IGovernor-COUNTING_MODE}."
      },
      "castVote(uint256,uint8)": {
        "details": "See {IGovernor-castVote}."
      },
      "castVoteBySig(uint256,uint8,uint8,bytes32,bytes32)": {
        "details": "See {IGovernor-castVoteBySig}."
      },
      "castVoteWithReason(uint256,uint8,string)": {
        "details": "See {IGovernor-castVoteWithReason}."
      },
      "execute(address[],uint256[],bytes[],bytes32)": {
        "details": "See {IGovernor-execute}."
      },
      "hasVoted(uint256,address)": {
        "details": "See {IGovernor-hasVoted}."
      },
      "hashProposal(address[],uint256[],bytes[],bytes32)": {
        "details": "See {IGovernor-hashProposal}. The proposal id is produced by hashing the RLC encoded `targets` array, the `values` array, the `calldatas` array and the descriptionHash (bytes32 which itself is the keccak256 hash of the description string). This proposal id can be produced from the proposal data which is part of the {ProposalCreated} event. It can even be computed in advance, before the proposal is submitted. Note that the chainId and the governor address are not part of the proposal id computation. Consequently, the same proposal (with same operation and same description) will have the same id if submitted on multiple governors accross multiple networks. This also means that in order to execute the same operation twice (on the same governor) the proposer will have to change the description in order to avoid proposal id conflicts."
      },
      "name()": {
        "details": "See {IGovernor-name}."
      },
      "proposalDeadline(uint256)": {
        "details": "See {IGovernor-proposalDeadline}."
      },
      "proposalEta(uint256)": {
        "details": "Public accessor to check the eta of a queued proposal"
      },
      "proposalSnapshot(uint256)": {
        "details": "See {IGovernor-proposalSnapshot}."
      },
      "proposalVotes(uint256)": {
        "details": "Accessor to the internal vote counts."
      },
      "queue(address[],uint256[],bytes[],bytes32)": {
        "details": "Function to queue a proposal to the timelock."
      },
      "quorumDenominator()": {
        "details": "Returns the quorum denominator. Defaults to 100, but may be overridden."
      },
      "quorumNumerator()": {
        "details": "Returns the current quorum numerator. See {quorumDenominator}."
      },
      "relay(address,uint256,bytes)": {
        "details": "Relays a transaction or function call to an arbitrary target. In cases where the governance executor is some contract other than the governor itself, like when using a timelock, this function can be invoked in a governance proposal to recover tokens or Ether that was sent to the governor contract by mistake. Note that if the executor is simply the governor itself, use of `relay` is redundant."
      },
      "setProposalThreshold(uint256)": {
        "details": "Update the proposal threshold. This operation can only be performed through a governance proposal. Emits a {ProposalThresholdSet} event."
      },
      "setVotingDelay(uint256)": {
        "details": "Update the voting delay. This operation can only be performed through a governance proposal. Emits a {VotingDelaySet} event."
      },
      "setVotingPeriod(uint256)": {
        "details": "Update the voting period. This operation can only be performed through a governance proposal. Emits a {VotingPeriodSet} event."
      },
      "timelock()": {
        "details": "Public accessor to check the address of the timelock"
      },
      "updateQuorumNumerator(uint256)": {
        "details": "Changes the quorum numerator. Emits a {QuorumNumeratorUpdated} event. Requirements: - Must be called through a governance proposal. - New numerator must be smaller or equal to the denominator."
      },
      "updateTimelock(address)": {
        "details": "Public endpoint to update the underlying timelock instance. Restricted to the timelock itself, so updates must be proposed, scheduled, and executed through governance proposals. CAUTION: It is not recommended to change the timelock while there are other queued governance proposals."
      },
      "version()": {
        "details": "See {IGovernor-version}."
      }
    },
    "version": 1
  },
  "userdoc": {
    "kind": "user",
    "methods": {
      "getVotes(address,uint256)": {
        "notice": "Read the voting weight from the token's built in snapshot mechanism (see {IGovernor-getVotes})."
      }
    },
    "version": 1
  }
}